:100000000C9461000C947E000C947E000C947E0095
:100010000C947E000C947E000C947E000C947E0068
:100020000C947E000C947E000C947E000C947E0058
:100030000C947E000C947E000C947E000C947E0048
:100040000C942F010C947E000C947E000C947E0086
:100050000C947E000C947E000C947E000C947E0028
:100060000C947E000C947E00000000002400270009
:100070002A000000000023002600290000000000E4
:10008000250028002B0004040404040404040202D4
:100090000202020203030303030301020408102007
:1000A0004080010204081020010204081020000012
:1000B0000008000201000003040700000000000027
:1000C000000011241FBECFEFD8E0DEBFCDBF11E08E
:1000D000A0E0B1E0E0E5F6E002C005900D92A430AA
:1000E000B107D9F721E0A4E0B1E001C01D92AF3023
:1000F000B207E1F70E9479010C9426030C940000EA
:10010000833081F028F4813099F08230A9F008958D
:100110008730A9F08830C9F08430B1F48091800034
:100120008F7D03C0809180008F7780938000089539
:1001300084B58F7784BD089584B58F7DFBCF809182
:10014000B0008F778093B00008958091B0008F7DCC
:10015000F9CF1F93CF93DF93282F30E0F901E255B9
:10016000FF4F8491F901E656FF4FD491F901EA5708
:10017000FF4FC491CC23A9F0162F81110E9480005B
:10018000EC2FF0E0EE0FFF1FE458FF4FA591B49164
:100190008FB7F894EC91111108C0D095DE23DC9351
:1001A0008FBFDF91CF911F910895DE2BF8CF3FB71E
:1001B000F89480910B0190910C01A0910D01B091E8
:1001C0000E0126B5A89B05C02F3F19F00196A11D71
:1001D000B11D3FBFBA2FA92F982F8827BC01CD0191
:1001E000620F711D811D911D42E0660F771F881FF0
:1001F000991F4A95D1F708958F929F92AF92BF921F
:10020000CF92DF92EF92FF926B017C010E94D700A8
:100210004B015C01C114D104E104F104B9F00E9466
:10022000D700681979098A099B09683E73408105DE
:10023000910580F321E0C21AD108E108F10888EEA7
:10024000880E83E0981EA11CB11CE4CFFF90EF90B4
:10025000DF90CF90BF90AF909F908F9008951F92A6
:100260000F920FB60F9211242F933F938F939F936A
:10027000AF93BF938091070190910801A09109016C
:10028000B0910A013091060123E0230F2D3758F574
:100290000196A11DB11D2093060180930701909343
:1002A0000801A0930901B0930A0180910B0190917C
:1002B0000C01A0910D01B0910E010196A11DB11D7F
:1002C00080930B0190930C01A0930D01B0930E014C
:1002D000BF91AF919F918F913F912F910F900FBE42
:1002E0000F901F90189526E8230F0296A11DB11DAF
:1002F000D2CFCF93DF9300D01F92CDB7DEB77894E3
:1003000084B5826084BD84B5816084BD85B582601A
:1003100085BD85B5816085BD80916E0081608093CB
:100320006E00109281008091810082608093810034
:100330008091810081608093810080918000816044
:10034000809380008091B10084608093B10080919F
:10035000B00081608093B00080917A0084608093C7
:100360007A0080917A00826080937A0080917A008E
:10037000816080937A0080917A00806880937A000F
:100380001092C100A0E0B1E024E031E08D919D9198
:100390009927FC01E656FF4F44918A579F4FFC0175
:1003A00084918823A1F090E0880F991FFC01E859FF
:1003B000FF4F05911491FC01E458FF4F85919491F2
:1003C0008FB7F894F8019081942B90838FBF2A17F0
:1003D0003B07E1F6E7EAF0E0249103E910E0F801D9
:1003E00084918823C9F090E0880F991FFC01E85997
:1003F000FF4FA591B491FC01E458FF4F45915491F2
:100400009FB7F8943C91822F809583238C93FA01B7
:100410008081282B20839FBF44244A9493E0592E47
:10042000612C712C2BEB222E20E0322EBB24B394B6
:1004300030E0832E30E0932EF5E4F0937C00809141
:100440007A00806480937A0080917A0086FDFCCFE8
:10045000A0917800B091790024E833E00E941F0356
:10046000A30192010E94CF0269017A0164E6C60EDF
:10047000D11CE11CF11CF1018491E7EAF0E0F49158
:10048000F983F801A490A11059C0809104018B2533
:100490008093040164E670E080E090E00E94FC003C
:1004A000809105018B258093050164E670E080E072
:1004B00090E00E94FC008091040161E081114FC036
:1004C00082E00E94A900C701B6010E94FC0060E022
:1004D00082E00E94A9008091050161E0811147C07E
:1004E00083E00E94A900C701B6010E94FC0060E001
:1004F00083E00E94A90061E083E00E94A900C70197
:10050000B6010E94FC0060E083E00E94A900809197
:10051000040161E081113BC082E00E94A900C70193
:10052000B6010E94FC0060E082E00E94A9008114F4
:10053000910409F481CF0E9400007ECF81110E94B6
:100540008000EA2DF0E0EE0FFF1FEE58FF4FA5915F
:10055000B4918C91F9818F2309F497CFACCF82E0CD
:100560000E94A900C701B6010E94FC00B4CF83E03D
:100570000E94A900C701B6010E94FC0061E083E06F
:100580000E94A900C701B6010E94FC00C0CF82E012
:100590000E94A900C701B6010E94FC00C8CF052E29
:1005A00097FB1EF400940E94E60257FD07D00E94BC
:1005B000EE0207FC03D04EF40C94E60250954095F1
:1005C000309521953F4F4F4F5F4F089590958095FF
:1005D000709561957F4F8F4F9F4F0895A1E21A2E1E
:1005E000AA1BBB1BFD010DC0AA1FBB1FEE1FFF1FD7
:1005F000A217B307E407F50720F0A21BB30BE40B27
:10060000F50B661F771F881F991F1A9469F760956D
:100610007095809590959B01AC01BD01CF01089527
:10062000A29FB001B39FC001A39F700D811D112433
:10063000911DB29F700D811D1124911D08950E947E
:100640001003B7FF0895821B930B0895F894FFCF12
:0406500002000300A1
:00000001FF
